:100000000C945D000C9485000C9485000C94850084
:100010000C9485000C9485000C9485000C9485004C
:100020000C9485000C9485000C9485000C946C0451
:100030000C9485000C9485000C9485000C9485002C
:100040000C9422040C9485000C94F0030C94CA03C5
:100050000C9485000C9485000C9485000C9485000C
:100060000C9485000C94850000000008000201003B
:100070000003040700000000000000000000000072
:10008000250028002B0000000000240027002A0083
:10009000040404040404040402020202020203032E
:1000A0000303030301020408102040800102040836
:1000B0001020010204081020D50611241FBECFEF26
:1000C000D8E0DEBFCDBF11E0A0E0B1E0E8E8F5E1A7
:1000D00002C005900D92AC3AB107D9F722E0ACEA24
:1000E000B1E001C01D92AC37B207E1F710E0CDE5F9
:1000F000D0E004C02197FE010E949709CC35D107BA
:10010000C9F70E949F070C94C20A0C94000090E06B
:10011000FC01EC55FF4F249180579F4FFC018491C7
:10012000882399F090E0880F991FFC01EA57FF4F50
:10013000A591B491FC01E458FF4F859194918FB73C
:10014000F894EC91E22BEC938FBF0895AF92BF929D
:10015000CF92DF92EF92FF920F931F93CF93DF9393
:100160006C017B018B01040F151FEB015E01AE18C2
:10017000BF08C017D10759F06991D601ED91FC91E4
:100180000190F081E02DC6010995892B79F7C50111
:10019000DF91CF911F910F91FF90EF90DF90CF9063
:1001A000BF90AF900895FC01538D448D252F30E012
:1001B000842F90E0821B930B541710F0CF96089574
:1001C00001970895FC01918D828D981761F0A28DA1
:1001D000AE0FBF2FB11D5D968C91928D9F5F9F7367
:1001E000928F90E008958FEF9FEF0895FC01918D1D
:1001F000828D981731F0828DE80FF11D858D90E08A
:1002000008958FEF9FEF0895FC01918D228D892F26
:1002100090E0805C9F4F821B91098F73992708950E
:1002200085EB91E00E94040121E0892B09F420E094
:10023000822F089580E090E0892B29F00E94100120
:1002400081110C9400000895FC01A48DA80FB92F12
:10025000B11DA35ABF4F2C91848D90E001968F73EE
:100260009927848FA689B7892C93A089B1898C910D
:10027000837080648C93938D848D981306C002885C
:10028000F389E02D80818F7D80830895EF92FF9226
:100290000F931F93CF93DF93EC0181E0888F9B8DA9
:1002A0008C8D98131AC0E889F989808185FF15C063
:1002B0009FB7F894EE89FF896083E889F989808186
:1002C0008370806480839FBF81E090E0DF91CF9155
:1002D0001F910F91FF90EF900895F62E0B8D10E077
:1002E0000F5F1F4F0F731127E02E8C8D8E110CC0E6
:1002F0000FB607FCFACFE889F989808185FFF5CF31
:10030000CE010E942401F1CFEB8DEC0FFD2FF11DEA
:10031000E35AFF4FF0829FB7F8940B8FEA89FB896D
:1003200080818062CFCFCF93DF93EC01888D8823CB
:10033000B9F0AA89BB89E889F9898C9185FD03C048
:10034000808186FD0DC00FB607FCF7CF8C9185FF2D
:10035000F2CF808185FFEDCFCE010E942401E9CF4D
:10036000DF91CF91089590E0FC01E859FF4F24916F
:10037000FC01EC55FF4F3491FC01E057FF4FE49135
:10038000EE23C9F0222339F0233001F1A8F4213003
:1003900019F1223029F1F0E0EE0FFF1FE458FF4F72
:1003A000A591B4918FB7F894EC91611126C0309566
:1003B0003E233C938FBF08952730A9F02830C9F021
:1003C000243049F7809180008F7D03C080918000A8
:1003D0008F7780938000DFCF84B58F7784BDDBCFAC
:1003E00084B58F7DFBCF8091B0008F778093B00074
:1003F000D2CF8091B0008F7DF9CF3E2BDACF3FB7BF
:10040000F8948091B1019091B201A091B301B091A3
:10041000B40126B5A89B05C02F3F19F00196A11D78
:10042000B11D3FBFBA2FA92F982F8827BC01CD013E
:10043000620F711D811D911D42E0660F771F881F9D
:10044000991F4A95D1F70895089590E080E00895A6
:10045000CF93DF93EC0160E08E810E94B30161E0F5
:100460008E810E94B30160E08E810E94B3018BE80F
:1004700091E00197F1F7DF91CF910895CF92DF924C
:10048000EF92FF920F931F93CF93DF936C017C0148
:1004900087E0E80EF11CD0E0C0E0062F10E0B801C4
:1004A0000C2E02C0759567950A94E2F76170F7010A
:1004B00081917F010E94B3012196C430D10579F763
:1004C000C601DF91CF911F910F91FF90EF90DF90C8
:1004D000CF900C942802CF92DF92EF92FF920F936D
:1004E0001F93CF93DF93EC01F62E642F8C810E9433
:1004F000B3018D818F3F19F060E00E94B3010F2D91
:1005000010E08F8584FF25C06E0187E0C80ED11CE6
:10051000F12CE12CB8010E2C02C0759567950A9458
:10052000E2F76170F60181916F010E94B301FFEF64
:10053000EF1AFF0A88E0E816F10461F7CE01DF91B7
:10054000CF911F910F91FF90EF90DF90CF900C947F
:100550002802B80184E0759567958A95E1F7CE0188
:100560000E943E026F2DCE01DF91CF911F910F911E
:10057000FF90EF90DF90CF900C943E0240E0682F08
:1005800084E592E00C946B0281E00E94BE028BE352
:100590009FE10197F1F70895CF93DF93823029F41B
:1005A0009091630298609093630280936702109227
:1005B000680280E48093690280E180936A0280E5AA
:1005C00080936B02809158020E94870080915902AB
:1005D0008F3F11F00E94870080915A020E9487008D
:1005E000C4E5D2E09E01245532408091630284FD2F
:1005F0000AC084E090E02196281739073CF48E81E8
:100600000E948700EFCF88E090E0F5CF8BE39DE07C
:100610000197F1F760E0809158020E94B30160E019
:1006200080915A020E94B301809159028F3F19F0C4
:1006300060E00E94B3018091630284FD34C063E0F6
:1006400084E592E00E943E02CBE4D6E4CE0101971D
:10065000F1F763E084E592E00E943E022197F1F712
:1006600063E084E592E00E943E0283E592E0019718
:10067000F1F762E084E592E00E943E02809163021D
:1006800080620E94BE0284E0809364028CE00E943B
:10069000BE020E94C40282E08093650286E0DF9180
:1006A000CF910C94BE0280620E94BE028BE496E45D
:1006B0000197F1F78091630280620E94BE0283E598
:1006C00092E00197F1F78091630280620E94BE027E
:1006D000D5CF41E00E946B0281E090E00895FB01DC
:1006E00001900020E9F73197AF01461B570BDC0161
:1006F000ED91FC910280F381E02D09948F929F92FD
:10070000AF92BF92EF92FF920F931F93CF93DF931D
:10071000CDB7DEB7A1970FB6F894DEBF0FBECDBF41
:100720007C01FA01CB0119A2223008F42AE08E01E3
:100730000F5D1F4F822E912CB12CA12CBF01A50162
:1007400094010E945609F901CA016A300CF5605DF6
:10075000D8016E938D01232B242B252B79F790E064
:1007600080E0109721F0BD01C7010E946F03A196A0
:100770000FB6F894DEBF0FBECDBFDF91CF911F91B2
:100780000F91FF90EF90BF90AF909F908F90089542
:10079000695CDECF1F920F920FB60F9211242F9338
:1007A0003F934F935F936F937F938F939F93AF93F9
:1007B000BF93EF93FF9385EB91E00E942401FF919B
:1007C000EF91BF91AF919F918F917F916F915F91C9
:1007D0004F913F912F910F900FBE0F901F90189542
:1007E0001F920F920FB60F9211242F938F939F9306
:1007F000EF93FF93E091C501F091C6018081E091F4
:10080000CB01F091CC0182FD1BC090818091CE0183
:100810008F5F8F732091CF01821741F0E091CE015D
:10082000F0E0EB54FE4F958F8093CE01FF91EF9156
:100830009F918F912F910F900FBE0F901F90189541
:100840008081F4CF1F920F920FB60F9211242F9335
:100850003F938F939F93AF93BF938091AD019091FE
:10086000AE01A091AF01B091B0013091AC0123E095
:10087000230F2D3758F50196A11DB11D2093AC0112
:100880008093AD019093AE01A093AF01B093B001FE
:100890008091B1019091B201A091B301B091B401E6
:1008A0000196A11DB11D8093B1019093B201A09357
:1008B000B301B093B401BF91AF919F918F913F91DC
:1008C0002F910F900FBE0F901F90189526E8230FC1
:1008D0000296A11DB11DD2CF1F920F920FB60F929B
:1008E00011242F923F924F925F926F927F928F923C
:1008F0009F92AF92BF92CF92DF92EF92FF920F93AF
:100900001F932F933F934F935F936F937F938F9397
:100910009F93AF93BF93EF93FF93CF93DF9300D059
:1009200000D0CDB7DEB7F894209152023091530237
:100930003A83298330E020E050E040E0A981BA8189
:100940008C918417150611F10CF11196ED91FC9123
:10095000E20FF31F80818E3008F08E508770806424
:1009600080937C0080917A00806480937A008091EB
:100970007A0086FDFCCF8091780090917900918774
:1009800080874F5F5F4F245C3F4FD8CF312C212CA5
:1009900010E000E050E6852E5AEE952EA12CB12CE9
:1009A000E981FA8180818017110609F00CF4D1C128
:1009B00021813281220D331D3C832B83D901D096B6
:1009C0004D905D906D907C90D397F901808D918DC5
:1009D000A28DB38D480E591E6A1E7B1E40AA51AAD5
:1009E00062AA73AA84899589A689B7897201E81ACF
:1009F000F90A868597850C979787868786859785D8
:100A000097FDBDC086859785873F99400CF0BAC099
:100A1000D9011E968D919C91EB81FC8197878687E9
:100A200080859185C0ACD1AC8C159D05CCF48285B8
:100A3000938565E070E00E944209CB01880F991F01
:100A4000680F791F6E157F055CF42085318586A9B6
:100A500097A92817390724F48085918597AB86AB31
:100A6000AB81BC8118968D919C911997C816D906B7
:100A70009CF418962D913C911997D4968D919C9148
:100A8000D5978217930744F418968D919C911997E6
:100A9000D5969C938E93D497BBEFEB16F1040CF490
:100AA000A7C0EB81FC8180859185C816D9060CF022
:100AB0009FC0848581119CC08285938565E070E02C
:100AC0000E944209CB01880F991F680F791F6E158C
:100AD0007F050CF08DC021E0248784899589A68943
:100AE000B789F201E81BF90BAB81BC811B96FC9323
:100AF000EE931A97FD01448A558A668A778A83ADF8
:100B0000882371F013AE7C96CD01C096AB81BC8179
:100B10001A962D913C91219331938E179F07B1F72F
:100B2000EB81FC8182AD882381F112AE21E023AFFD
:100B3000AB81BC8112968D919C91139797FD04C057
:100B40001C966C910E94B301EB81FC81E480F580DE
:100B5000F7FCD5C0868597856AE070E00E9442095F
:100B60007C836B838E2D0E9487002B813C81232BFD
:100B700009F095C060E08E2D0E94B301C0C090E0E6
:100B800080E04ACF86EF99E047CFEB81FC817C96ED
:100B90004B815C81425D5F4F30E020E08281938138
:100BA00081939193280F391F4E175F07B9F7AB81D7
:100BB000BC811A968D919C911B979F969C938E93C6
:100BC0009E97820F931F6AE070E00E942E099B019E
:100BD00050E040E0C501B4010E947809EB81FC813E
:100BE0003783268321E0258786EF99E097878687DC
:100BF000AB81BC8118968D919C9119978C159D05A0
:100C00003CF51C968C911C97882311F11C961C9224
:100C10001C97D6964D915C91D797D4962D913C9187
:100C2000D597241B350B53963C932E93529752968F
:100C30008D919C9197FD019695958795840F951FB1
:100C4000EB81FC8191AF80AF95AB84AB97AB86AB6A
:100C5000F5ECEF16F9E0FF060CF46ACFAB81BC812E
:100C600050968D919C915197D9969C938E93D8973D
:100C7000E0E0F2E0D596FC93EE93D497D796FC9300
:100C8000EE93D69754964D925D926D927C925797C3
:100C9000E1E0DA96EC93DA97DB961C9249CF8B81F0
:100CA0009C818F3F910511F461E065CFF701FF272B
:100CB000E859FF4FE491E33071F150F4E130D1F0A5
:100CC000E23019F1AB81BC81A038B1056CF752CF8D
:100CD000E73069F1E830A1F1E430A1F780918000BC
:100CE0008062809380002B813C8130938B00209325
:100CF0008A0005C084B5806884BD9B8197BD0F5F65
:100D00001F4FBCE32B0E311C4BCE84B5806284BDDB
:100D1000AB81A8BDF4CF8091800080688093800073
:100D2000EB81FC81F0938900E0938800E8CF80910B
:100D3000B00080688093B0003B813093B300DFCF78
:100D40008091B00080628093B0008B818093B4006A
:100D5000D6CF81E0E981FA81878378940F900F9054
:100D60000F900F90DF91CF91FF91EF91BF91AF91D5
:100D70009F918F917F916F915F914F913F912F91B3
:100D80001F910F91FF90EF90DF90CF90BF90AF90A9
:100D90009F908F907F906F905F904F903F902F909B
:100DA0000F900FBE0F901F9018951092B8011092DF
:100DB000B70188EE93E0A0E0B0E08093B901909392
:100DC000BA01A093BB01B093BC018AE091E090937B
:100DD000B6018093B50185EC90E09093C2018093B9
:100DE000C10184EC90E09093C4018093C30180EC36
:100DF00090E09093C6018093C50181EC90E09093C0
:100E0000C8018093C70182EC90E09093CA0180935F
:100E1000C90186EC90E09093CC018093CB011092B5
:100E2000CE011092CF011092D0011092D1011092F8
:100E300075021092740282E090E0909377028093A2
:100E400076028CE692E0909353028093520281E006
:100E500080936C028CE390E00E949D09FC018EE07F
:100E600090E0918380838FEF9FEF938382839583BC
:100E7000848382E090E0A0E0B0E0808F918FA28F29
:100E8000B38FDF015C96CF01C0961D921D928A1729
:100E90009B07D9F715861782168288E592E093871B
:100EA0008287148610AA11AA12AA13AA148A158A74
:100EB000168A178A80E092E095AB84AB97AB86AB3D
:100EC00086E292E0918B808B91AF80AF84E690E0D8
:100ED000938B828B81E082AF13AE17861686F093D8
:100EE0006E02E0936D0210925702109256028CE14E
:100EF00091E090935502809354028CE080935802C5
:100F00008FEF809359028BE080935A0285E08093A3
:100F10005B0284E080935C0283E080935D0282E068
:100F200080935E0210925F02109260021092610242
:100F3000109262021092630281E00C94CC027894C9
:100F400084B5826084BD84B5816084BD85B58260CE
:100F500085BD85B5816085BD80916E00816080937F
:100F60006E001092810080918100826080938100E8
:100F700080918100816080938100809180008160F8
:100F8000809380008091B10084608093B100809153
:100F9000B00081608093B00080917A00846080937B
:100FA0007A0080917A00826080937A0080917A0042
:100FB000816080937A0080917A00806880937A00C3
:100FC0001092C100E091C501F091C60182E08083DA
:100FD000E091C101F091C2011082E091C301F09152
:100FE000C4018FEC80831092CD01E091C901F09192
:100FF000CA0186E08083E091C701F091C801808139
:1010000080618083E091C701F091C8018081886090
:101010008083E091C701F091C8018081806880835E
:10102000E091C701F091C80180818F7D808382E0CB
:101030000E94CC02E0916D02F0916E02118210824A
:101040008DE090E093838283F89486E292E0918B26
:10105000808B91AF80AF7894F12CE12CD12CC12CF6
:1010600080916C028C151D0431F12CF1C0916D0240
:10107000D0916E02CE0DDF1D8A819B8197FD06C047
:101080000E94870060E08A810E94B3018C819D816B
:1010900097FD0AC00E948700CC818C2F0E94870098
:1010A00060E08C2F0E94B3012FEFC21AD20A8CE3AA
:1010B000E80EF11CD5CF0E94FF016053784F8F4F8F
:1010C0009F4F60936F0270937002809371029093B0
:1010D00072021092730210928000109282008CE0D3
:1010E000809381008CE790E0909389008093880042
:1010F00082E080936F00789464E271E085EB91E088
:101100000E946F0362E571E085EB91E00E946F033E
:101110000E94C40265E571E084E592E00E946F03DD
:10112000C0E0D0E0E0916D02F0916E02C680D78001
:10113000F894858515867894882309F45EC06DE659
:1011400071E085EB91E00E946F0362E571E085EB51
:1011500091E00E946F0361EA71E085EB91E00E94EB
:101160006F030D2C000CEE08FF082AE0B701A60162
:10117000F7FE0DC06DE285EB91E00E944601442729
:101180005527BA014C195D096E097F092AE085EBE4
:1011900091E00E947E0362E571E085EB91E00E94A0
:1011A0006F030E94C40267EA71E084E592E00E9446
:1011B0006F03E0916702E23008F04EC0E150F0E0CA
:1011C000EC5AFD4F848980680E94BE022AE0B70174
:1011D000A601F7FE0EC041E06DE284E592E00E94B8
:1011E0006B0244275527BA014C195D096E097F0926
:1011F0002AE084E592E00E947E030E94FF014B01F9
:101200005C0184E1C82ED12CE12CF12C0E94FF015D
:10121000681979098A099B09683E7340810591051F
:10122000A8F321E0C21AD108E108F10888EE880E7F
:1012300083E0981EA11CB11CC114D104E104F10487
:1012400029F7209709F46ECF0E941001882309F432
:1012500069CF0E94000066CFE1E0B1CFAA1BBB1BA3
:1012600051E107C0AA1FBB1FA617B70710F0A61BA6
:10127000B70B881F991F5A95A9F780959095BC01C7
:10128000CD01089597FB072E16F4009407D077FD43
:1012900009D00E942E0907FC05D03EF49095819557
:1012A0009F4F0895709561957F4F0895A1E21A2E82
:1012B000AA1BBB1BFD010DC0AA1FBB1FEE1FFF1FFA
:1012C000A217B307E407F50720F0A21BB30BE40B4A
:1012D000F50B661F771F881F991F1A9469F7609591
:1012E0007095809590959B01AC01BD01CF0108954B
:1012F000052E97FB1EF400940E948F0957FD07D01E
:101300000E94560907FC03D04EF40C948F095095A7
:101310004095309521953F4F4F4F5F4F08959095E1
:101320008095709561957F4F8F4F9F4F0895EE0F79
:10133000FF1F0590F491E02D09940F931F93CF9315
:10134000DF938230910510F482E090E0E0917A0220
:10135000F0917B0230E020E0B0E0A0E0309799F41B
:101360002115310509F44AC0281B390B24303105F9
:10137000D8F58A819B816115710589F1FB01938301
:101380008283FE0111C0408151810281138148177F
:101390005907E0F04817590799F4109761F0129631
:1013A0000C93129713961C933296CF01DF91CF9135
:1013B0001F910F91089500937A0210937B02F4CF4E
:1013C0002115310551F04217530738F0A901DB010F
:1013D0009A01BD01DF01F801C1CFEF01F9CF909370
:1013E0007B0280937A02CDCFFE01E20FF31F81933F
:1013F00091932250310939832883D7CF20917802E5
:1014000030917902232B41F42091020130910301A4
:1014100030937902209378022091000130910101EC
:101420002115310541F42DB73EB74091040150918B
:101430000501241B350BE0917802F0917902E21747
:10144000F307A0F42E1B3F0B2817390778F0AC01E7
:101450004E5F5F4F2417350748F04E0F5F1F5093C4
:10146000790240937802819391939FCFF0E0E0E07E
:101470009CCFCF93DF930097E9F0FC013297138262
:101480001282A0917A02B0917B02ED0130E020E05F
:101490001097A1F420813181820F931F209178024F
:1014A000309179022817390709F061C0F093790269
:1014B000E0937802DF91CF910895EA01CE17DF071C
:1014C000E8F54A815B819E0141155105B1F7E901BB
:1014D000FB83EA8349915991C40FD51FEC17FD078F
:1014E00061F4808191810296840F951FE9019983AF
:1014F0008883828193819B838A83F0E0E0E0129667
:101500008D919C9113970097B9F52D913C9111976E
:10151000CD010296820F931F2091780230917902BB
:101520002817390739F6309751F510927B0210923F
:101530007A02B0937902A0937802BCCFD383C2839E
:1015400040815181840F951FC817D90761F44E5F00
:101550005F4F88819981480F591F518340838A8149
:101560009B81938382832115310509F0B0CFF093DD
:101570007B02E0937A029ECFFD01DC01C0CF138293
:081580001282D7CFF894FFCFCF
:1015880000007C028000000000004601A600D30095
:1015980093010401E200F600000000006903A600C0
:1015A80025022402526176692054656A61204372DB
:1015B8006561746976652043617463686572732038
:1015C80050756C7365206465746563746F7220214F
:1015D80021000D0A00424541545320504552204DE8
:1015E800494E555445202842504D293A00E299A5C4
:1015F8002020526176692054656A612048656172CD
:101608007462656174207573696E672070756C7398
:10161800657320646574656374656420E299A52028
:0C1628000042504D3A200042504D3A0064
:00000001FF
