:100000000C945D000C9485000C9485000C94850084
:100010000C9485000C9485000C9485000C9485004C
:100020000C9485000C9485000C9485000C94D302EC
:100030000C9485000C9485000C9485000C9485002C
:100040000C9489020C9485000C9457020C94310294
:100050000C9485000C9485000C9485000C9485000C
:100060000C9485000C94850000000008000201003B
:100070000003040700000000000000000000000072
:10008000250028002B0000000000240027002A0083
:10009000040404040404040402020202020203032E
:1000A0000303030301020408102040800102040836
:1000B00010200102040810203C0511241FBECFEFC0
:1000C000D8E0DEBFCDBF11E0A0E0B1E0EAEEF1E1A3
:1000D00002C005900D92A036B107D9F722E0A0E644
:1000E000B1E001C01D92A831B207E1F710E0CDE503
:1000F000D0E004C02197FE010E94C807CC35D1078B
:10010000C9F70E94DB050C94F3080C94000090E002
:10011000FC01EC55FF4F249180579F4FFC018491C7
:10012000882399F090E0880F991FFC01EA57FF4F50
:10013000A591B491FC01E458FF4F859194918FB73C
:10014000F894EC91E22BEC938FBF0895AF92BF929D
:10015000CF92DF92EF92FF920F931F93CF93DF9393
:100160006C017B018B01040F151FEB015E01AE18C2
:10017000BF08C017D10759F06991D601ED91FC91E4
:100180000190F081E02DC6010995892B79F7C50111
:10019000DF91CF911F910F91FF90EF90DF90CF9063
:1001A000BF90AF900895FC01538D448D252F30E012
:1001B000842F90E0821B930B541710F0CF96089574
:1001C00001970895FC01918D828D981761F0A28DA1
:1001D000AE0FBF2FB11D5D968C91928D9F5F9F7367
:1001E000928F90E008958FEF9FEF0895FC01918D1D
:1001F000828D981731F0828DE80FF11D858D90E08A
:1002000008958FEF9FEF0895FC01918D228D892F26
:1002100090E0805C9F4F821B91098F73992708950E
:1002200089E691E00E94040121E0892B09F420E095
:10023000822F089580E090E0892B29F00E94100120
:1002400081110C9400000895FC01A48DA80FB92F12
:10025000B11DA35ABF4F2C91848D90E001968F73EE
:100260009927848FA689B7892C93A089B1898C910D
:10027000837080648C93938D848D981306C002885C
:10028000F389E02D80818F7D80830895EF92FF9226
:100290000F931F93CF93DF93EC0181E0888F9B8DA9
:1002A0008C8D98131AC0E889F989808185FF15C063
:1002B0009FB7F894EE89FF896083E889F989808186
:1002C0008370806480839FBF81E090E0DF91CF9155
:1002D0001F910F91FF90EF900895F62E0B8D10E077
:1002E0000F5F1F4F0F731127E02E8C8D8E110CC0E6
:1002F0000FB607FCFACFE889F989808185FFF5CF31
:10030000CE010E942401F1CFEB8DEC0FFD2FF11DEA
:10031000E35AFF4FF0829FB7F8940B8FEA89FB896D
:1003200080818062CFCFCF93DF93EC01888D8823CB
:10033000B9F0AA89BB89E889F9898C9185FD03C048
:10034000808186FD0DC00FB607FCF7CF8C9185FF2D
:10035000F2CF808185FFEDCFCE010E942401E9CF4D
:10036000DF91CF91089590E0FC01E859FF4F24916F
:10037000FC01EC55FF4F3491FC01E057FF4FE49135
:10038000EE23C9F0222339F0233001F1A8F4213003
:1003900019F1223029F1F0E0EE0FFF1FE458FF4F72
:1003A000A591B4918FB7F894EC91611126C0309566
:1003B0003E233C938FBF08952730A9F02830C9F021
:1003C000243049F7809180008F7D03C080918000A8
:1003D0008F7780938000DFCF84B58F7784BDDBCFAC
:1003E00084B58F7DFBCF8091B0008F778093B00074
:1003F000D2CF8091B0008F7DF9CF3E2BDACF3FB7BF
:10040000F8948091650190916601A0916701B09187
:10041000680126B5A89B05C02F3F19F00196A11DC4
:10042000B11D3FBFBA2FA92F982F8827BC01CD013E
:10043000620F711D811D911D42E0660F771F881F9D
:10044000991F4A95D1F70895FC0101900020E9F722
:100450003197AF01481B590BBC0189E691E00C9420
:10046000A6001F920F920FB60F9211242F933F9365
:100470004F935F936F937F938F939F93AF93BF93AC
:10048000EF93FF9389E691E00E942401FF91EF91A1
:10049000BF91AF919F918F917F916F915F914F919C
:1004A0003F912F910F900FBE0F901F9018951F92A4
:1004B0000F920FB60F9211242F938F939F93EF9368
:1004C000FF93E0917901F0917A018081E0917F01C1
:1004D000F091800182FD1BC09081809182018F5F2D
:1004E0008F7320918301821741F0E0918201F0E047
:1004F000E759FE4F958F80938201FF91EF919F9175
:100500008F912F910F900FBE0F901F9018958081A3
:10051000F4CF1F920F920FB60F9211242F933F9397
:100520008F939F93AF93BF938091610190916201EC
:10053000A0916301B09164013091600123E0230F29
:100540002D3758F50196A11DB11D209360018093B0
:10055000610190936201A0936301B0936401809163
:10056000650190916601A0916701B09168010196C3
:10057000A11DB11D8093650190936601A093670151
:10058000B0936801BF91AF919F918F913F912F914F
:100590000F900FBE0F901F90189526E8230F02961C
:1005A000A11DB11DD2CF1F920F920FB60F92112431
:1005B0002F923F924F925F926F927F928F929F9273
:1005C000AF92BF92CF92DF92EF92FF920F931F9361
:1005D0002F933F934F935F936F937F938F939F934B
:1005E000AF93BF93EF93FF93CF93DF9300D000D0EF
:1005F000CDB7DEB7F89420910602309107023A8316
:10060000298330E020E050E040E0A981BA818C915C
:100610008417150611F10CF11196ED91FC91E20F82
:10062000F31F80818E3008F08E5087708064809335
:100630007C0080917A00806480937A0080917A00B7
:1006400086FDFCCF8091780090917900918780871A
:100650004F5F5F4F245C3F4FD8CF312C212C10E0EF
:1006600000E050E6852E5AEE952EA12CB12CE981A2
:10067000FA8180818017110609F00CF4D1C1218123
:100680003281220D331D3C832B83D901D0964D90AE
:100690005D906D907C90D397F901808D918DA28DA6
:1006A000B38D480E591E6A1E7B1E40AA51AA62AA2B
:1006B00073AA84899589A689B7897201E81AF90A0B
:1006C000868597850C97978786878685978597FD7A
:1006D000BDC086859785873F99400CF0BAC0D90187
:1006E0001E968D919C91EB81FC81978786878085F2
:1006F0009185C0ACD1AC8C159D05CCF482859385D9
:1007000065E070E00E947307CB01880F991F680FA6
:10071000791F6E157F055CF42085318586A997A920
:100720002817390724F48085918597AB86ABAB8178
:10073000BC8118968D919C911997C816D9069CF486
:1007400018962D913C911997D4968D919C91D5979F
:100750008217930744F418968D919C911997D5961A
:100760009C938E93D497BBEFEB16F1040CF4A7C0C7
:10077000EB81FC8180859185C816D9060CF09FC05D
:10078000848581119CC08285938565E070E00E941C
:100790007307CB01880F991F680F791F6E157F05AE
:1007A0000CF08DC021E0248784899589A689B789BA
:1007B000F201E81BF90BAB81BC811B96FC93EE9315
:1007C0001A97FD01448A558A668A778A83AD882301
:1007D00071F013AE7C96CD01C096AB81BC811A96A8
:1007E0002D913C91219331938E179F07B1F7EB81A7
:1007F000FC8182AD882381F112AE21E023AFAB8171
:10080000BC8112968D919C91139797FD04C01C9604
:100810006C910E94B301EB81FC81E480F580F7FCD0
:10082000D5C0868597856AE070E00E9473077C8357
:100830006B838E2D0E9487002B813C81232B09F036
:1008400095C060E08E2D0E94B301C0C090E080E0B2
:100850004ACF86EF99E047CFEB81FC817C964B81B4
:100860005C81425D5F4F30E020E082819381819323
:100870009193280F391F4E175F07B9F7AB81BC81E1
:100880001A968D919C911B979F969C938E939E9701
:10089000820F931F6AE070E00E945F079B0150E0A7
:1008A00040E0C501B4010E94A907EB81FC813783B8
:1008B000268321E0258786EF99E097878687AB819D
:1008C000BC8118968D919C9119978C159D053CF5CE
:1008D0001C968C911C97882311F11C961C921C97D6
:1008E000D6964D915C91D797D4962D913C91D59702
:1008F000241B350B53963C932E93529752968D9111
:100900009C9197FD019695958795840F951FEB8196
:10091000FC8191AF80AF95AB84AB97AB86ABF5EC28
:10092000EF16F9E0FF060CF46ACFAB81BC8150965C
:100930008D919C915197D9969C938E93D897E0E096
:10094000F2E0D596FC93EE93D497D796FC93EE9372
:10095000D69754964D925D926D927C925797E1E0B6
:10096000DA96EC93DA97DB961C9249CF8B819C81C7
:100970008F3F910511F461E065CFF701FF27E8593A
:10098000FF4FE491E33071F150F4E130D1F0E23007
:1009900019F1AB81BC81A038B1056CF752CFE730BB
:1009A00069F1E830A1F1E430A1F780918000806224
:1009B000809380002B813C8130938B0020938A00B0
:1009C00005C084B5806884BD9B8197BD0F5F1F4FB4
:1009D000BCE32B0E311C4BCE84B5806284BDAB8151
:1009E000A8BDF4CF80918000806880938000EB8167
:1009F000FC81F0938900E0938800E8CF8091B000FB
:100A000080688093B0003B813093B300DFCF80914A
:100A1000B00080628093B0008B818093B400D6CF09
:100A200081E0E981FA81878378940F900F900F908D
:100A30000F90DF91CF91FF91EF91BF91AF919F9177
:100A40008F917F916F915F914F913F912F911F9166
:100A50000F91FF90EF90DF90CF90BF90AF909F905D
:100A60008F907F906F905F904F903F902F900F905E
:100A70000FBE0F901F90189510926C0110926B0191
:100A800088EE93E0A0E0B0E080936D0190936E015A
:100A9000A0936F01B09370018AE091E090936A0196
:100AA0008093690185EC90E09093760180937501C5
:100AB00084EC90E0909378018093770180EC90E053
:100AC00090937A018093790181EC90E090937C017E
:100AD00080937B0182EC90E090937E0180937D0176
:100AE00086EC90E09093800180937F0110928201C8
:100AF00010928301109284011092850110921102CC
:100B00001092100282E090E0909313028093120200
:100B100088E092E0909307028093060281E0809340
:100B200008028CE390E00E94CE07FC018EE090E08A
:100B3000918380838FEF9FEF938382839583848358
:100B400082E090E0A0E0B0E0808F918FA28FB38F21
:100B5000DF015C96CF01C0961D921D928A179B07FC
:100B6000D9F715861782168288E592E093878287E7
:100B7000148610AA11AA12AA13AA148A158A168A10
:100B8000178A80E092E095AB84AB97AB86AB86E2A8
:100B900092E0918B808B91AF80AF84E690E0938B55
:100BA000828B81E082AF13AE17861686F0930A021D
:100BB000E09309020895CF93DF93CDB7DEB7A197F5
:100BC0000FB6F894DEBF0FBECDBF789484B58260B7
:100BD00084BD84B5816084BD85B5826085BD85B5E1
:100BE000816085BD80916E00816080936E0010925F
:100BF00081008091810082608093810080918100DA
:100C0000816080938100809180008160809380006A
:100C10008091B10084608093B1008091B0008160C8
:100C20008093B00080917A00846080937A008091F4
:100C30007A00826080937A0080917A00816080934C
:100C40007A0080917A00806880937A001092C100C7
:100C5000E0917901F0917A0182E08083E091750161
:100C6000F09176011082E0917701F09178018FEC9C
:100C7000808310928101E0917D01F0917E0186E0F8
:100C80008083E0917B01F0917C0180818061808391
:100C9000E0917B01F0917C01808188608083E0910C
:100CA0007B01F0917C01808180688083E0917B01F1
:100CB000F0917C0180818F7D8083E0910902F09129
:100CC0000A02118210828DE090E093838283F8946F
:100CD00086E292E0918B808B91AF80AF7894F12C7B
:100CE000E12CD12CC12C809108028C151D0451F1EE
:100CF0004CF10091090210910A020E0D1F1DF8011E
:100D00008281938197FD07C00E94870060E0F8010F
:100D100082810E94B301F8018481958197FD0BC007
:100D20000E948700F8011481812F0E94870060E0F3
:100D3000812F0E94B301FFEFCF1ADF0A2CE3E20EEE
:100D4000F11CD1CF0E94FF016053784F8F4F9F4F0E
:100D500060930B0270930C0280930D0290930E022D
:100D600010920F0210928000109282008CE080930B
:100D700081008CE790E0909389008093880082E066
:100D800080936F00789488E191E00E9424028AE3C6
:100D900091E00E9424029AE0892E912CA12CB12C82
:100DA00000E010E0E0910902F0910A02C680D780CD
:100DB000F8948585158678948823D9F18DE391E0A0
:100DC0000E9424028AE391E00E9424028AE591E0D5
:100DD0000E9424020D2C000CEE08FF08F7FE59C0FB
:100DE0006DE289E691E00E94460122273327A9019E
:100DF0002C193D094E095F0919A2CE0181967C018B
:100E0000CA01B901A50194010E948707605DF7013D
:100E100062937F01211531054105510589F7E114E0
:100E2000F10419F0C7010E9424028AE391E00E94B4
:100E300024020E94FF016B017C0184E1482E512CA9
:100E4000612C712C0E94FF016C197D098E099F098C
:100E5000683E734081059105A8F3F1E04F1A5108EF
:100E60006108710828EEC20E23E0D21EE11CF11CBD
:100E7000411451046104710429F70115110509F4A5
:100E800091CF0E941001882309F48CCF0E940000AA
:100E900089CFA701960119A2CE0181967C01CA01D2
:100EA000B901A50194010E948707605DF701629373
:100EB0007F01211531054105510589F7B0CFAA1BE6
:100EC000BB1B51E107C0AA1FBB1FA617B70710F035
:100ED000A61BB70B881F991F5A95A9F78095909567
:100EE000BC01CD01089597FB072E16F4009407D09E
:100EF00077FD09D00E945F0707FC05D03EF490956E
:100F000081959F4F0895709561957F4F0895A1E257
:100F10001A2EAA1BBB1BFD010DC0AA1FBB1FEE1F73
:100F2000FF1FA217B307E407F50720F0A21BB30BBE
:100F3000E40BF50B661F771F881F991F1A9469F73A
:100F400060957095809590959B01AC01BD01CF0196
:100F50000895052E97FB1EF400940E94C00757FDCC
:100F600007D00E94870707FC03D04EF40C94C007FB
:100F700050954095309521953F4F4F4F5F4F0895C5
:100F800090958095709561957F4F8F4F9F4F0895F5
:100F9000EE0FFF1F0590F491E02D09940F931F931E
:100FA000CF93DF938230910510F482E090E0E091DE
:100FB0001602F091170230E020E0B0E0A0E0309798
:100FC00099F42115310509F44AC0281B390B243046
:100FD0003105D8F58A819B816115710589F1FB0185
:100FE00093838283FE0111C040815181028113816C
:100FF00048175907E0F04817590799F4109761F01E
:1010000012960C93129713961C933296CF01DF9190
:10101000CF911F910F91089500931602109317021C
:10102000F4CF2115310551F04217530738F0A901CB
:10103000DB019A01BD01DF01F801C1CFEF01F9CF5A
:101040009093170280931602CDCFFE01E20FF31F9B
:10105000819391932250310939832883D7CF2091EE
:10106000140230911502232B41F42091020130919A
:101070000301309315022093140220910001309156
:1010800001012115310541F42DB73EB7409104010E
:1010900050910501241B350BE0911402F0911502CB
:1010A000E217F307A0F42E1B3F0B2817390778F03F
:1010B000AC014E5F5F4F2417350748F04E0F5F1F9E
:1010C0005093150240931402819391939FCFF0E0C7
:1010D000E0E09CCFCF93DF930097E9F0FC013297DB
:1010E00013821282A0911602B0911702ED0130E036
:1010F00020E01097A1F420813181820F931F20916D
:101100001402309115022817390709F061C0F093D5
:101110001502E0931402DF91CF910895EA01CE17F2
:10112000DF07E8F54A815B819E0141155105B1F762
:10113000E901FB83EA8349915991C40FD51FEC174C
:10114000FD0761F4808191810296840F951FE9016A
:1011500099838883828193819B838A83F0E0E0E096
:1011600012968D919C9113970097B9F52D913C9112
:101170001197CD010296820F931F20911402309196
:1011800015022817390739F6309751F510921702D2
:1011900010921602B0931502A0931402BCCFD38311
:1011A000C28340815181840F951FC817D90761F40C
:1011B0004E5F5F4F88819981480F591F518340834B
:1011C0008A819B81938382832115310509F0B0CFF9
:1011D000F0931702E09316029ECFFD01DC01C0CF11
:0A11E00013821282D7CFF894FFCFDC
:1011EA00000018028000000000004601A600D3009B
:1011FA0093010401E200F600576520637265617489
:10120A00656420612070756C736553656E736F72C7
:10121A00204F626A6563742021000D0A00E299A5D5
:10122A0020204120486561727442656174204861DA
:10123A007070656E65642021200042504D3A20008E
:00000001FF
